:020000040800F2
:1000000000800020E51B0008DD040008DF04000874
:10001000E1040008E3040008E50400080000000013
:10002000000000000000000000000000E7040008DD
:10003000E904000800000000EB040008ED040008DB
:10004000351C0008351C0008351C0008351C00084C
:10005000351C0008351C0008351C0008351C00083C
:10006000351C0008351C0008351C0008F504000884
:10007000351C0008351C0008351C0008351C00081C
:10008000351C000800000000351C0008351C000865
:10009000351C0008351C0008351C0008351C0008FC
:1000A000351C0008351C0008351C0008351C0008EC
:1000B000351C0008351C0008351C0008351C0008DC
:1000C000351C0008351C0008351C0008351C0008CC
:1000D000351C0008351C0008351C0008351C0008BC
:1000E000351C0008351C0008351C0008351C0008AC
:1000F000351C0008351C0008351C000800000000F5
:1001000000000000351C000800000000351C00083D
:10011000351C000800000000351C0008351C0008D4
:10012000351C0008351C0008351C0008351C00086B
:10013000351C00080000000000000000351C00080D
:10014000351C0008351C00080000000000000000FD
:10015000000000000000000000000000000000009F
:10016000000000000000000000000000351C000836
:10017000351C000800000000000000000000000026
:1001800000000000351C0008000000000000000016
:10019000000000000000000000000000000000005F
:1001A0000000000000000000351C0008351C00089D
:1001B000351C0008351C0008351C00080000000034
:1001C00000000000351C00080000000000000000D6
:0801D000351C0008351C000875
:1001D80010B5054C237833B9044B13B10448AFF379
:1001E80000800123237010BD2000002000000000C3
:1001F800901C000808B5034B1BB103490348AFF333
:10020800008008BD0000000024000020901C0008A9
:1002180000B58DB030220021684601F02DFD11484F
:10022800114B036000F07CFAA8B902230093002266
:100238008DF804208DF8052002921E210391049266
:100248000593069307926946064800F019FB28B9FA
:100258000DB05DF804FB00F07FF8E6E700F07CF8ED
:10026800F6E700BF3C0000200010005002681A4B5F
:100278009A4200D0704710B582B0044603F170432B
:1002880003F50033DA6C42F48022DA64DB6C03F4A1
:1002980080230193019B1148114B0360662343603F
:1002A800102383600023C360802303614FF400732D
:1002B80043614FF4806383612023C3614FF440534B
:1002C800036200F051FC20B9044BA3609C6202B0A9
:1002D80010BD00F041F8F7E7001000505000002072
:1002E8000800024000B583B00E4B9A6C42F004023D
:1002F8009A649A6C02F004020092009A9A6C42F096
:1003080001029A649B6C03F001030193019B002294
:1003180011460B2000F0AAF90B2000F0DFF903B01A
:100328005DF804FB0010024082B00A4BDA6C42F020
:100338002002DA64DA6C02F020020092009ADA6C89
:1003480042F00102DA64DB6C03F001030193019BC4
:1003580002B070470010024072B6FEE700B595B0D3
:100368003822002106A801F087FC002001900290A5
:1003780003900490059000F0A9FE012306934FF422
:100388008033079302230D9303220E920F93552275
:10039800109211931293139306A800F051FF80B99D
:1003A8000F230193032302930023039304930593DC
:1003B80004210DEB010001F0FBF920B915B05DF83F
:1003C80004FBFFF7C9FFFFF7C7FF000000B583B0C4
:1003D80000F004F9FFF7C2FFFFF7A6FFFFF782FF5F
:1003E80000F01AF8FFF714FF00F092F8064800F042
:1003F80051FE002100910A23044A054800F0A2F9A1
:10040800044801F0D7FAFEE7B00000200000002001
:100418003C000020EC00002008B50A480A4B0360A5
:1004280080234360602383600C23036100230375EA
:100438008361C36200F09AFD00B908BDFFF78CFF25
:10044800FBE700BFB00000200003014000B587B003
:1004580000230193029303930493059302680E4BC0
:100468009A4202D007B05DF804FB03F5863303F522
:100478008073DA6C42F00102DA64DB6C03F001038A
:100488000093009B042301930323029301A94FF0D7
:10049800904000F081FCE5E70003014000B583B01F
:1004A8000B4B1A6E42F001021A661A6E02F0010234
:1004B8000092009A9A6D42F080529A659B6D03F003
:1004C80080530193019B00F087FE03B05DF804FBA5
:1004D80000100240FEE7FEE7FEE7FEE7FEE7704792
:1004E8007047704708B500F089F808BD08B502489C
:1004F80000F0F0FB08BD00BF50000020034AD2F80E
:10050800883043F47003C2F88830704700ED00E08B
:1005180000B585B000230193029303930E480F4A58
:100528000260436083601022C260836101F0DCFADC
:1005380058B9202301930023039301A9064801F029
:1005480003FB28B905B05DF804FBFFF705FFF0E7EA
:10055800FFF702FFF6E700BFEC00002000100040A4
:100568000268094B9A4200D0704782B003F5003305
:100578009A6D42F010029A659B6D03F01003019387
:10058800019B02B0704700BF00100040104B1B6871
:100598000BB90120704710B504464FF47A70B0FBD0
:1005A800F3F30C4A1068B0FBF3F000F0A5F868B953
:1005B8000F2C01D901200AE0002221464FF0FF301C
:1005C80000F054F8044B1C60002000E0012010BD2E
:1005D80018000020140000201C00002010B5032083
:1005E80000F032F80F20FFF7D1FF10B101242046A8
:1005F80010BD0446FFF752FFF9E70000034A1368ED
:10060800034909680B441360704700BF3801002094
:1006180018000020014B1868704700BF38010020FF
:1006280038B50446FFF7F6FF0546B4F1FF3F02D0A0
:10063800044B1B681C44FFF7EDFF401BA042FAD394
:1006480038BD00BF18000020074AD36823F4E063D0
:100658001B041B0C000200F4E060034343F0BF637B
:1006680043F40033D360704700ED00E000B5194B48
:10067800DB68C3F30223C3F1070CBCF1040F28BFE6
:100688004FF0040C03F1040EBEF1060F18D9033B1A
:100698004FF0FF3E0EFA0CFC21EA0C0199400EFACD
:1006A80003F322EA0303194300280BDB0901C9B24B
:1006B80000F1604000F5614080F800135DF804FB2C
:1006C8000023E5E700F00F000901C9B2024B1954F5
:1006D800F4E700BF00ED00E014ED00E0002807DBC0
:1006E80000F01F02400901239340024A42F82030DB
:1006F800704700BF00E100E00138B0F1807F0BD205
:100708004FF0E0235861054AF02182F823100020B9
:10071800986107221A6170470120704700ED00E0D8
:1007280070B110B50446037933B102232371002058
:1007380020610123237110BD4371FFF797FDF4E792
:100748000120704770B504460D461146049A407959
:1007580001286BD00120607102202071002D31D159
:10076800A068334EC662A068324E0663A068324E57
:1007780046632668306840F480503060042A1BD0F5
:10078800082A1CD0AAB12A46002D39D1266830681B
:1007980040F400503060A06800F052FA064600238A
:1007A8006371002E36D0236943F004032361304679
:1007B80070BD22680832E7E722680C32E4E7226855
:1007C8001032E1E7E0681D4EC662E0681C4E066321
:1007D800E0681C4E46632668306840F08050306000
:1007E800042A07D0082A08D00AB10022CCE72268D8
:1007F8001432C9E722681832C6E722681C32C3E7F8
:100808002668306840F000503060E06800F018FA60
:100818000646C4E72268136805F01005012000FAAF
:1008280005F51D431560FFF7FBFEC0E70226BEE78E
:10083800530800086508000871080008870A0008BE
:10084800990A0008A50A0008704710B5846A20466E
:10085800FFF7FAFF0123237110BD704708B5806ABE
:10086800FFF7FBFF08BD704710B5846A236943F0A2
:10087800040323612046FFF7F6FF0123237110BD0F
:100888004379012B00F0F4802DE9F04104460E462F
:10089800154601234371022303718B68042B17D07B
:1008A800F369012B5ED02368DF6B05F01005072381
:1008B800AB4027EA0307B369012B60D0022B00F095
:1008C800BD807369002B40F0BC804FF0010858E0F0
:1008D800FFF7A0FE07467DB123685B6B002B3ADA71
:1008E800FFF798FEC01B0128F6D9236943F00803D7
:1008F8002361032020719FE023685B6B13F4004F92
:100908000BD0FFF787FEC01B0128F5D9236943F0F8
:1009180008032361032020718EE00120FFF780FE89
:100928002368726A1A642068826C05F0100140F22C
:10093800FF338B4022EA0302B36A8B401A43826476
:100948002068C36CFF228A4023EA0203F26A8A40C5
:100958001343C364A4E70120FFF762FE2368726AA9
:100968005A64E0E721688A6B05F010001F23834072
:1009780022EA0302336A834013438B6393E74FF001
:100988000008B3687269134343EA08034FF480729E
:10099800AA4027EA02073279012A55D04FF0000809
:1009A80048EA03034FF40072AA4027EA0207727963
:1009B800012A4CD04FF0000848EA030827F44047C2
:1009C8003368022B46D01F4308FA05F848EA0707A0
:1009D8002368DF6321680B684FF48042AA4023EA4A
:1009E80002030B6021680B6840F6FE72AA4023EAF6
:1009F8000202F368AB4013430B6021680B68C02206
:100A0800AA4023EA02030B60F268C2F38303326947
:100A18009208120202F470621A432068036E40F6CC
:100A28000F71A94023EA010302FA05F51D43056683
:100A38000123237100206071BDE8F0814FF00108A7
:100A48009FE74FF000089CE74FF48078A8E74FF441
:100A58000078B1E700F0A8FF064B984202D947F4A6
:100A68000047B1E7044B9842AED947F48047ABE75B
:100A7800022070470068890900B4C404704710B5A3
:100A8800846A2046FFF7FAFF0123237110BD7047DF
:100A980008B5806AFFF7FBFF08BD704710B5846A88
:100AA800236943F0040323612046FFF7F6FF01237F
:100AB800237110BD30B4C46C056D6560446D14B10C
:100AC800846DC56D6560446C04F01F0C012404FA44
:100AD8000CF4056C6C60046863608368102B05D0A7
:100AE800036899600368DA6030BC704703689A60ED
:100AF8000368D960F8E7000003680C4A934213D8EA
:100B08000B49DBB2083B0B4AA2FB0323426C22F0E1
:100B180003020A448264084AC264C3F3041301222C
:100B280002FA03F3036570470449EAE70704024041
:100B380000080240CDCCCCCC8008024020080240FE
:100B48000379074A1A4492004265064A8265013BC6
:100B580003F01F03012202FA03F3C365704700BFC5
:100B68003F8200104009024000285BD010B50446BF
:100B780001682D4B99423DD82C4B0B442C4AA2FBC3
:100B880003231B099B0043642A4B0364022384F854
:100B980025300A6822F4FF4222F07002A368E06858
:100BA80003432069034360690343A0690343E06981
:100BB8000343206A034313430B602046FFF79CFF5F
:100BC800A368B3F5804F20D0A36C22791A60E36C38
:100BD800226D5A606368013B032B19D900236365B2
:100BE800A365E3650020E063012384F8253084F8D9
:100BF800240010BD104B0B440D4AA2FB03231B0914
:100C08009B0043640D4B0364C0E700236360DBE78C
:100C18002046FFF795FF636D00221A60A36DE26D11
:100C28005A60DFE70120704707040240F8FFFDBF64
:100C3800CDCCCCCC00000240F8FBFDBF0004024044
:100C480038B5044690F82400012841D0012084F8E2
:100C5800240094F82500C0B2012804D0002384F8A9
:100C68002430022038BD022084F825000020E063EB
:100C78002568286820F0010028602046FFF71AFF41
:100C8800236BD3B12268136843F00E031360A36C7F
:100C98001A6812F4803F03D01A6842F480721A600E
:100CA800636D1BB11A6842F480721A602268136877
:100CB80043F0010313600020D4E72268136823F08F
:100CC800040313602268136843F00A031360DEE725
:100CD8000220C7E738B5036C196804682568436CB7
:100CE80003F01F0304229A400A4215D015F0040F9E
:100CF80012D0236813F0200F03D1236823F00403D4
:100D08002360436C03F01F02016C042393404B6083
:100D1800036B03B1984738BD02229A400A421CD09F
:100D280015F0020F19D0236813F0200F06D123689D
:100D380023F00A032360012380F82530436C03F075
:100D48001F02016C022393404B60002380F824307B
:100D5800C36A002BDFD09847DDE7082202FA03F3C5
:100D68000B42D8D015F0080FD5D0236823F00E0316
:100D78002360436C03F01F03016C012202FA03F3A2
:100D88004B60C26380F82520002380F82430436B31
:100D9800002BC0D09847BEE7F0B583B0002362E0CF
:100DA80085685E000324B44025EA0405CC68B44095
:100DB8002C438460446824EA0C0C4C68C4F3001487
:100DC8009C4044EA0C0444605EE0DD08083550F8B5
:100DD800256003F007044FEA840C0F2404FA0CF48E
:100DE80026EA040E0C6904FA0CF444EA0E0440F8EE
:100DF800254060E0052400E0002404FA0EF42C43AA
:100E08000CF1020C554D45F82C40554CA568D443BF
:100E180025EA02064F6817F4801F01D042EA05064A
:100E28004F4DAE60ED6804EA05064F6817F4001FE1
:100E380001D042EA05064A4DEE606D6804EA0506EF
:100E48004F6817F4003F01D042EA0506444D6E6032
:100E58002D682C404E6816F4803F01D042EA050404
:100E68003F4A146001330A6832FA03F474D04FF031
:100E7800010C0CFA03FC1CEA0202F3D04C6804F0E3
:100E88000304013C012C8BD94C6804F00304032CA7
:100E98000CD0C4685D004FF0030C0CFA05FC24EA82
:100EA8000C0C8C68AC4044EA0C04C4604C6804F038
:100EB8000304022C89D004684FEA430E4FF0030C58
:100EC8000CFA0EFC24EA0C0C4C6804F0030404FA37
:100ED8000EF444EA0C0404604C6814F4403FC1D09A
:100EE800204C256E45F001052566246E04F00104AA
:100EF8000194019C4FEA930C0CF10205174C54F82D
:100F0800255003F003044FEA840E0F2404FA0EF46C
:100F180025EA0405B0F1904F3FF46EAF124CA042A1
:100F280012D004F58064A04210D004F58064A04279
:100F38000ED004F58064A0420CD004F58064A04271
:100F48003FF458AF062458E7012456E7022454E733
:100F5800032452E7042450E703B0F0BD0000014029
:100F6800000401400010024000040048002800F07E
:100F7800868010B582B0044690F83A30DBB2052B73
:100F88007FD090F83A30DBB2022B7CD03F4B1A6E00
:100F980042F001021A661B6E03F001030193019BE4
:100FA80090F83A300BB980F839302046FFF74EFAFE
:100FB800A368402B25D0602B23D02268136823F028
:100FC8001003E16A0B43136021680B68304A1A402A
:100FD8006368A0680343E068034320690343207DF6
:100FE800012849D000200343606A0343A06A0343F1
:100FF800206B43EAC043606B43EA006313430B6012
:1010080020E02268136823F01003E16A0B431360A1
:1010180021680B681E4A1A406368A0680343206968
:101028000343207D012824D000200343606A034342
:10103800A06A0343206B43EAC043606B43EA006342
:1010480013430B6021688B69002B09DB8B6923F044
:101058003F03A269E0690243206A024313438B619C
:1010680094F83A3013B9012384F83A30002002B0DA
:1010780010BD4FF48070D8E74FF48070B3E70120BB
:1010880070470120F3E70120F1E700BF001002409C
:10109800113E00E0A8B190F83A30DBB2052B12D02F
:1010A80090F83A30DBB2012B01D00120704701687B
:1010B8000B6843F001030B60042380F83A300020EA
:1010C800704701207047012070470000002836D182
:1010D8003E4B1B6803F4C063B3F5806F08D03B4AEE
:1010E800D2F8803023F48073C2F880300020704733
:1010F800364AD2F8803023F48073C2F880301368FF
:1011080023F4C06343F400731360314B1B6832222D
:1011180002FB03F32F4AA2FB03239B0C013300E0DD
:10112800013B2A4A526912F4806F01D0002BF7D193
:10113800264B5B6913F4806F44D100207047B0F5EB
:10114800007F08D0214A136823F4C06343F4806306
:101158001360002070471D4B1B6803F4C063B3F590
:10116800806F08D0194AD2F8803043F48073C2F8EF
:10117800803000207047154AD2F8803043F48073DD
:10118800C2F88030136823F4C06343F4007313601B
:101198000F4B1B68322202FB03F30E4AA2FB032308
:1011A8009B0C013300E0013B084A526912F4806F3E
:1011B80001D0002BF7D1054B5B6913F4806F03D185
:1011C80000207047032070470320704700700040DC
:1011D8001400002083DE1B43024A936843F48043D3
:1011E8009360704700700040124BDA6802F0030207
:1011F800D868C0F30310431C032A11D00E48B0FB73
:10120800F3F00C4BDB68C3F3062303FB00F0094B38
:10121800DB68C3F3416301335B00B0FBF3F0704755
:101228000648B0FBF3F0034BDB68C3F3062303FB6C
:1012380000F0ECE7001002400024F40000127A00ED
:10124800002800F0548270B582B00446036813F099
:10125800010F37D0A44A936803F00C03D26802F058
:1012680003020C2B23D0082B23D06368B3F5803FEF
:101278004ED0B3F5A02F51D09B4B1A6822F4803280
:101288001A601A6822F480221A606368002B52D010
:10129800FFF7C0F90546944B1B6813F4003F11D1C2
:1012A800FFF7B8F9401B6428F5D9032028E2032A80
:1012B800D9D18D4B1B6813F4003F03D06368002B12
:1012C80000F01782236813F0020F5DD0864A9368F6
:1012D80003F00C03D26802F003020C2B3AD0042B63
:1012E8003AD0E368002B75D07F4A136843F48073C3
:1012F8001360FFF78FF905467B4B1B6813F4806F6B
:101308005FD1FFF787F9401B0228F5D90320F7E1E1
:10131800754A136843F480331360B6E703F18043DA
:10132800A3F53C331A6842F480221A601A6842F422
:1013380080321A60A9E7FFF76DF905466A4B1B680A
:1013480013F4003FBED0FFF765F9401B6428F5D9B8
:101358000320D5E1022AC2D1634B1B6813F4806FC6
:1013680003D0E368002B00F0C6815F4A536823F07E
:10137800FE43216943EA016353605C4B1868FFF739
:1013880005F9002840F0B981236813F0080F4CD004
:1013980063699BB3544AD2F8943043F00103C2F80E
:1013A8009430FFF737F905464F4BD3F8943013F0D4
:1013B800020F3AD1FFF72EF9401B0228F4D9032077
:1013C8009EE1494A536823F0FE43216943EA0163D9
:1013D8005360D9E7444A136823F480731360FFF716
:1013E80019F90546404B1B6813F4806FCCD0FFF702
:1013F80011F9401B0228F5D9032081E13A4AD2F8B5
:10140800943023F00103C2F89430FFF703F905463E
:10141800354BD3F8943013F0020F06D0FFF7FAF8E3
:10142800401B0228F4D903206AE1236813F0040F53
:1014380000F081802C4B9B6D13F0805F36D12A4BD6
:101448009A6D42F080529A659B6D03F08053019328
:10145800019B0125264B1B6813F4807F28D0A368C5
:10146800012B39D0052B45D01F4BD3F8902022F003
:101478000102C3F89020D3F8902022F00402C3F8A8
:101488009020A368002B43D0FFF7C4F80646164BFC
:10149800D3F8903013F0020F4CD1FFF7BBF8801B44
:1014A80041F288339842F2D9032029E10025D1E797
:1014B8000F4A136843F480731360FFF7ABF80646CE
:1014C8000B4B1B6813F4807FC9D1FFF7A3F8801B6F
:1014D8000228F5D9032013E1034AD2F8903043F0EB
:1014E8000103C2F89030CCE7001002401C00002035
:1014F800007000408A4BD3F8902042F00402C3F8F1
:101508009020D3F8902042F00102C3F89020B8E769
:10151800FFF780F80646824BD3F8903013F0020F9D
:1015280008D0FFF777F8801B41F288339842F2D948
:101538000320E5E0E5B9236813F0200F35D0A3694F
:10154800E3B1774AD2F8983043F00103C2F89830F3
:10155800FFF760F80546724BD3F8983013F0020F86
:1015680023D1FFF757F8401B0228F4D90320C7E01E
:101578006B4A936D23F080539365DCE7684AD2F891
:10158800983023F00103C2F89830FFF743F8054676
:10159800634BD3F8983013F0020F06D0FFF73AF8F0
:1015A800401B0228F4D90320AAE0E369002B00F0CD
:1015B800A6805B4A926802F00C020C2A69D0022BC2
:1015C8001DD0574B1A6822F080721A60DA6822F030
:1015D8000302DA60DA6822F0887222F48032DA6074
:1015E800FFF718F804464E4B1B6813F0007F4ED0E7
:1015F800FFF710F8001B0228F5D9032080E0484ABD
:10160800136823F080731360FFF704F80546444B12
:101618001B6813F0007F06D0FEF7FCFF401B022872
:10162800F5D903206CE03E4AD3683E491940236A45
:10163800606A013843EA0013A06A43EA0023206B7A
:101648004008013843EA4053606B4008013843EAD8
:101658004063E06A43EAC0630B43D360136843F016
:1016680080731360D36843F08073D360FEF7D2FFB2
:1016780004462B4B1B6813F0007F06D1FEF7CAFF08
:10168800001B0228F5D903203AE0002038E00020AA
:1016980036E0012B36D0224BDB6803F00301226AC7
:1016A800914231D103F0F002616A0139B2EB011FB6
:1016B8002CD103F4FE42A16AB2EB012F28D103F02A
:1016C8007842E16AB2EBC16F24D103F4C001226B06
:1016D8005208013AB1EB425F1ED103F0C063626B5E
:1016E8005208013AB3EB426F18D1002008E00120FC
:1016F8007047012004E0012002E0012000E0002002
:1017080002B070BD0120FBE70120F9E70120F7E7EF
:101718000120F5E70120F3E70120F1E70120EFE7D9
:10172800001002400C809F011E4B9B6803F00C03C5
:10173800042B33D01B4B9B6803F00C03082B2FD0D2
:10174800184B9B6803F00C030C2B01D0002070474A
:10175800144BDA6802F00302D868C0F30310431C84
:10176800032A11D01048B0FBF3F00E4BDB68C3F32B
:10177800062303FB00F00B4BDB68C3F34163013323
:101788005B00B0FBF3F070470848B0FBF3F0054B83
:10179800DB68C3F3062303FB00F0ECE7024870475D
:1017A80002487047001002400024F40000127A003A
:1017B800002800F0E680F8B50C460546744B1B6817
:1017C80003F00F038B420BD2714A136823F00F0307
:1017D8000B431360136803F00F038B4240F0D38070
:1017E8002E6816F001065FD06B68032B2FD0022BF2
:1017F8004DD0684B1B6813F4806F00F0C680FFF76C
:1018080093FF654B98424DD9624A936823F0F003E1
:1018180043F08003936080265E4A936823F00303B5
:1018280069680B439360FEF7F5FE0746594B9B68C2
:1018380003F00C036A68B3EB820F35D0FEF7EAFEBB
:10184800C01B41F288339842F0D9032078E0514B0D
:101858001B6813F0007F01D1012071E0FFF7C4FC81
:101868004D4B98421AD94B4B9B6813F0F00F05D09B
:101878002E6816F00206CFD0AB688BB9454A93683C
:1018880023F0F00343F0800393608026C4E7414BC4
:101898001B6813F4003FB2D1012051E00026BBE7DA
:1018A8000026B9E70026B7E72B6813F0020F48D0E7
:1018B80013F0040F04D0374A936843F4E06393604D
:1018C8002B6813F0080F06D0324A936823F47C5330
:1018D80043F4E06393602F4A936823F0F003A96808
:1018E8000B4393602A4B1B6803F00F03A34230D8C5
:1018F8002B6813F0040F06D0264A936823F4E0639C
:10190800E9680B4393602B6813F0080F07D0214A4E
:10191800936823F46053296943EAC1039360FFF78E
:1019280003FF1C4B9B68C3F303131C4AD35C03F0EF
:101938001F03D8401A4B18601A4B1868FEF726FE8A
:10194800F8BD802ECED1134A936823F0F00393603C
:10195800C8E70F4A136823F00F0323431360FEF709
:1019680059FE06460A4B1B6803F00F03A342BFD07B
:10197800FEF750FE801B41F288339842F2D90320CB
:10198800DEE7012070470120DAE70120D8E700BF31
:10199800002002400010024000B4C404A81C000843
:1019A800140000201C000020014B1868704700BF7D
:1019B8001400002090F83D30DBB2012B2DD102231A
:1019C80080F83D300368184A934218D0B3F1804F2D
:1019D80015D0A2F59432934211D002F58062934259
:1019E8000DD002F59632934209D002F54062934237
:1019F80005D01A6842F001021A6000207047996801
:101A08000A4A0A40062A0AD0B2F5803F09D01A6865
:101A180042F001021A600020704701207047002040
:101A280070470020704700BF002C014007000100EC
:101A380003682C4A90420ED0B0F1804F0BD0A2F52B
:101A48009432904207D002F58062904203D002F5AA
:101A58009632904203D123F070034A681343214A17
:101A680090421AD0B0F1804F17D0A2F5943290422C
:101A780013D002F5806290420FD002F59632904260
:101A88000BD002F54062904207D002F58062904286
:101A980003D002F58062904203D123F44073CA68F0
:101AA800134323F080034A69134303608B68C362BE
:101AB8000B6883620B4B98420FD003F50063984282
:101AC8000BD003F54063984207D003F58063984232
:101AD80003D003F58063984201D10B6903630123A6
:101AE80043617047002C014060B310B5044690F87C
:101AF8003D3013B3022384F83D30214651F8040BDE
:101B0800FFF796FF012384F8483084F83E3084F8C4
:101B18003F3084F8403084F8413084F8423084F80B
:101B2800433084F8443084F8453084F8463084F8EB
:101B3800473084F83D30002010BD80F83C30FEF777
:101B48000FFDD7E70120704790F83C30012B40D0BB
:101B580030B4012380F83C30022380F83D3002681D
:101B6800536894681C4DAA4203D005F50065AA4243
:101B780003D123F470034D682B4323F0007323F043
:101B880070030D682B4353600368134A934212D0C5
:101B9800B3F1804F0FD0A2F5943293420BD002F5E7
:101BA8008062934207D002F59632934203D002F541
:101BB8004062934204D124F080048A6814439C60F4
:101BC800012380F83D30002380F83C30184630BCB3
:101BD80070470220704700BF002C01400D48854621
:101BE8000D480E490E4A002302E0D458C45004336D
:101BF800C4188C42F9D30B4A0B4C002301E0136044
:101C08000432A242FBD3FEF779FC00F011F8FEF78C
:101C1800DDFBFEE7008000200000002020000020FF
:101C2800C01C0008200000203C010020FEE7000046
:101C380070B50D4D0D4C641BA4100026A64209D1A9
:101C48000B4D0C4C00F020F8641BA4100026A64293
:101C580005D170BD55F8043B98470136EEE755F8B5
:101C6800043B98470136F2E7B81C0008B81C000886
:101C7800B81C0008BC1C000802440346934200D16B
:101C8800704703F8011BF9E7F8B500BFF8BC08BCBA
:101C98009E467047F8B500BFF8BC08BC9E46704722
:101CA8000000000000000000010203040607080904
:041CB800FD01000822
:041CBC00D901000842
:101CC00000080008000800080008000000000000EC
:101CD000000000000024F4000100000010000000DB
:0400000508001BE5EF
:00000001FF
